{
  "contractName": "Lottery",
  "abi": [
    {
      "inputs": [],
      "stateMutability": "nonpayable",
      "type": "constructor"
    },
    {
      "anonymous": false,
      "inputs": [
        {
          "indexed": true,
          "internalType": "uint256",
          "name": "_id",
          "type": "uint256"
        },
        {
          "indexed": true,
          "internalType": "address",
          "name": "_player",
          "type": "address"
        }
      ],
      "name": "logPickWinner",
      "type": "event"
    },
    {
      "anonymous": false,
      "inputs": [
        {
          "indexed": true,
          "internalType": "uint256",
          "name": "_id",
          "type": "uint256"
        },
        {
          "indexed": true,
          "internalType": "address",
          "name": "_player",
          "type": "address"
        }
      ],
      "name": "logPlayerEnters",
      "type": "event"
    },
    {
      "inputs": [],
      "name": "manager",
      "outputs": [
        {
          "internalType": "address",
          "name": "",
          "type": "address"
        }
      ],
      "stateMutability": "view",
      "type": "function",
      "constant": true
    },
    {
      "inputs": [],
      "name": "enterLottery",
      "outputs": [],
      "stateMutability": "payable",
      "type": "function",
      "payable": true
    },
    {
      "inputs": [],
      "name": "getNumberOfPlayers",
      "outputs": [
        {
          "internalType": "uint256",
          "name": "",
          "type": "uint256"
        }
      ],
      "stateMutability": "view",
      "type": "function",
      "constant": true
    },
    {
      "inputs": [
        {
          "internalType": "uint256",
          "name": "_id",
          "type": "uint256"
        }
      ],
      "name": "getPlayer",
      "outputs": [
        {
          "internalType": "address",
          "name": "",
          "type": "address"
        }
      ],
      "stateMutability": "view",
      "type": "function",
      "constant": true
    },
    {
      "inputs": [],
      "name": "getPricePool",
      "outputs": [
        {
          "internalType": "uint256",
          "name": "",
          "type": "uint256"
        }
      ],
      "stateMutability": "view",
      "type": "function",
      "constant": true
    },
    {
      "inputs": [],
      "name": "getEntryFee",
      "outputs": [
        {
          "internalType": "uint256",
          "name": "",
          "type": "uint256"
        }
      ],
      "stateMutability": "view",
      "type": "function",
      "constant": true
    }
  ],
  "bytecode": "0x608060405234801561001057600080fd5b50600080546001600160a01b031916331781556002819055600355600160045561026b8061003f6000396000f3fe6080604052600436106100555760003560e01c80631fec1cf71461005a578063481c6a751461007e578063c1af5785146100b6578063e55ae4e8146100c0578063e586a4f0146100e0578063fd6673f5146100f5575b600080fd5b34801561006657600080fd5b506003545b6040519081526020015b60405180910390f35b34801561008a57600080fd5b5060005461009e906001600160a01b031681565b6040516001600160a01b039091168152602001610075565b6100be61010a565b005b3480156100cc57600080fd5b5061009e6100db3660046101f6565b6101b8565b3480156100ec57600080fd5b5060045461006b565b34801561010157600080fd5b5060025461006b565b6000546001600160a01b031633141561012257600080fd5b600454341461013057600080fd5b600280549060006101408361020e565b909155505060018054808201825560009182527fb10e2d527612073b26eecdfd717e6a320cf44b4afac2b0732d9fcbe2b7fa0cf60180546001600160a01b03191633908117909155600254604051919290917ffa9dc8c83aa1f703aedc31eab7f85db92ab3ae998363edf4bc7a07e5d080f5359190a3565b6000600182815481106101db57634e487b7160e01b600052603260045260246000fd5b6000918252602090912001546001600160a01b031692915050565b600060208284031215610207578081fd5b5035919050565b600060001982141561022e57634e487b7160e01b81526011600452602481fd5b506001019056fea264697066735822122020bcce743e32ef54d627172c77e6b9c10bfdc70895c456567d392bfb54f3bd3464736f6c63430008040033",
  "immutableReferences": {},
  "source": "pragma solidity ^0.8.4;\n\ncontract Lottery {\n  //SPDX-License-Identifier: UNLICENSED\n\n  address public manager;   // manager is the creator of this contract\n  address[] players;\n  //boolean lotteryIsOpen;\n  uint playerCounter;\n  uint pricePool;\n  uint entryFee; // the number of ETH to pay in order to play\n\n  event logPlayerEnters (\n    uint indexed _id,\n    address indexed _player\n  );\n\n  event logPickWinner (\n    uint indexed _id,\n    address indexed _player\n  );\n\n  constructor ()  {\n    manager = msg.sender;\n    playerCounter = 0;\n    pricePool = 0;\n    entryFee = 1;\n    //lotteryIsOpen = true;\n  }\n\n  function enterLottery () public payable {\n    // the lottery should be open\n    //require(lotteryIsOpen);\n\n    // the manager can not enter himself\n    require(msg.sender != manager);\n\n    // The value must be equal to the entryFee\n    require(msg.value == entryFee);\n\n    playerCounter++;\n    players.push(msg.sender);\n\n    emit logPlayerEnters(playerCounter, msg.sender);\n  }\n\n  // function pickWinner () public {\n  //   // should be at leats 2 players\n  //   uint _id;\n  //   require(playerCounter > 1);\n  //\n  //   _id = 1;\n  //   emit logPickWinner(_id, players[_id]);\n  // }\n\n  function getNumberOfPlayers () public view returns (uint) {\n    return playerCounter;\n  }\n\n  function getPlayer (uint _id) public view returns (address) {\n    return players[_id];\n  }\n\n  function getPricePool () public view returns (uint) {\n    return pricePool;\n  }\n\n  function getEntryFee () public view returns (uint) {\n    return entryFee;\n  }\n}\n",
  "sourcePath": "/mnt/data/Ethereum/Git/Hans-van-Velzen/UdemyLottery/contracts/2_Lottery.sol",
  "compiler": {
    "name": "solc",
    "version": "0.8.4+commit.c7e474f2.Emscripten.clang"
  },
  "schemaVersion": "3.4.0",
  "updatedAt": "2021-05-13T04:17:28.175Z",
  "networkType": "ethereum",
  "devdoc": {
    "kind": "dev",
    "methods": {},
    "version": 1
  },
  "userdoc": {
    "kind": "user",
    "methods": {},
    "version": 1
  }
}