{
  "contractName": "Lottery",
  "abi": [
    {
      "inputs": [],
      "stateMutability": "nonpayable",
      "type": "constructor"
    },
    {
      "anonymous": false,
      "inputs": [
        {
          "indexed": true,
          "internalType": "uint256",
          "name": "_id",
          "type": "uint256"
        },
        {
          "indexed": true,
          "internalType": "address",
          "name": "_player",
          "type": "address"
        }
      ],
      "name": "logPickWinner",
      "type": "event"
    },
    {
      "anonymous": false,
      "inputs": [
        {
          "indexed": true,
          "internalType": "uint256",
          "name": "_id",
          "type": "uint256"
        },
        {
          "indexed": true,
          "internalType": "address",
          "name": "_player",
          "type": "address"
        }
      ],
      "name": "logPlayerEnters",
      "type": "event"
    },
    {
      "inputs": [],
      "name": "manager",
      "outputs": [
        {
          "internalType": "address",
          "name": "",
          "type": "address"
        }
      ],
      "stateMutability": "view",
      "type": "function"
    },
    {
      "inputs": [],
      "name": "enterLottery",
      "outputs": [],
      "stateMutability": "nonpayable",
      "type": "function"
    },
    {
      "inputs": [],
      "name": "pickWinner",
      "outputs": [],
      "stateMutability": "nonpayable",
      "type": "function"
    },
    {
      "inputs": [],
      "name": "getNumberOfPlayers",
      "outputs": [
        {
          "internalType": "uint256",
          "name": "",
          "type": "uint256"
        }
      ],
      "stateMutability": "view",
      "type": "function"
    },
    {
      "inputs": [
        {
          "internalType": "uint256",
          "name": "_id",
          "type": "uint256"
        }
      ],
      "name": "getPlayer",
      "outputs": [
        {
          "internalType": "address",
          "name": "",
          "type": "address"
        }
      ],
      "stateMutability": "view",
      "type": "function"
    }
  ],
  "bytecode": "0x608060405234801561001057600080fd5b50600080546001600160a01b0319163317815560025561028e806100356000396000f3fe608060405234801561001057600080fd5b50600436106100575760003560e01c8063481c6a751461005c5780635d495aea1461008c578063c1af578514610096578063e55ae4e81461009e578063fd6673f5146100b1575b600080fd5b60005461006f906001600160a01b031681565b6040516001600160a01b0390911681526020015b60405180910390f35b6100946100c2565b005b61009461013b565b61006f6100ac366004610219565b6101db565b600254604051908152602001610083565b60006001600254116100d357600080fd5b60019050600181815481106100f857634e487b7160e01b600052603260045260246000fd5b60009182526020822001546040516001600160a01b039091169183917f9cbd4e389b5c2418919bf637be4df5062ea9925239ead375f4100ae98a374cc79190a350565b6000546001600160a01b031633141561015357600080fd5b6002805490600061016383610231565b909155505060018054808201825560009182527fb10e2d527612073b26eecdfd717e6a320cf44b4afac2b0732d9fcbe2b7fa0cf60180546001600160a01b03191633908117909155600254604051919290917ffa9dc8c83aa1f703aedc31eab7f85db92ab3ae998363edf4bc7a07e5d080f5359190a3565b6000600182815481106101fe57634e487b7160e01b600052603260045260246000fd5b6000918252602090912001546001600160a01b031692915050565b60006020828403121561022a578081fd5b5035919050565b600060001982141561025157634e487b7160e01b81526011600452602481fd5b506001019056fea264697066735822122027dcee2d3df6e65f00a8443705c0c560b42efc0ca2223c83c1b8094bd5af32ce64736f6c63430008040033",
  "immutableReferences": {},
  "source": "pragma solidity ^0.8.4;\n\ncontract Lottery {\n\n  address public manager;   // manager is the creator of this contract\n  address[] players;\n  uint playerCounter;\n\n  event logPlayerEnters (\n    uint indexed _id,\n    address indexed _player\n  );\n\n  event logPickWinner (\n    uint indexed _id,\n    address indexed _player\n  );\n\n  constructor ()  {\n    manager = msg.sender;\n    playerCounter = 0;\n  }\n\n  function enterLottery () public {\n    // the manager can not enter himself\n    require(msg.sender != manager);\n\n    playerCounter++;\n    players.push(msg.sender);\n\n    emit logPlayerEnters(playerCounter, msg.sender);\n  }\n\n  function pickWinner () public {\n    // should be at leats 2 players\n    uint _id;\n    require(playerCounter > 1);\n\n    _id = 1;\n    emit logPickWinner(_id, players[_id]);\n  }\n\n  function getNumberOfPlayers () public view returns (uint) {\n    return playerCounter;\n  }\n\n  function getPlayer (uint _id) public view returns (address) {\n    return players[_id];\n  }\n\n\n}\n",
  "sourcePath": "/mnt/data/Ethereum/Git/Hans-van-Velzen/UdemyLottery/contracts/Lottery.sol",
  "compiler": {
    "name": "solc",
    "version": "0.8.4+commit.c7e474f2.Emscripten.clang"
  },
  "schemaVersion": "3.4.0",
  "updatedAt": "2021-05-07T04:51:05.170Z",
  "devdoc": {
    "kind": "dev",
    "methods": {},
    "version": 1
  },
  "userdoc": {
    "kind": "user",
    "methods": {},
    "version": 1
  }
}