{
  "contractName": "Lottery",
  "abi": [
    {
      "inputs": [],
      "stateMutability": "nonpayable",
      "type": "constructor"
    },
    {
      "anonymous": false,
      "inputs": [
        {
          "indexed": false,
          "internalType": "uint256",
          "name": "entryFee",
          "type": "uint256"
        }
      ],
      "name": "logLotteryOpen",
      "type": "event"
    },
    {
      "anonymous": false,
      "inputs": [
        {
          "indexed": true,
          "internalType": "uint256",
          "name": "_id",
          "type": "uint256"
        },
        {
          "indexed": true,
          "internalType": "address",
          "name": "_player",
          "type": "address"
        }
      ],
      "name": "logPickWinner",
      "type": "event"
    },
    {
      "anonymous": false,
      "inputs": [
        {
          "indexed": true,
          "internalType": "uint256",
          "name": "_id",
          "type": "uint256"
        },
        {
          "indexed": true,
          "internalType": "address",
          "name": "_player",
          "type": "address"
        }
      ],
      "name": "logPlayerEnters",
      "type": "event"
    },
    {
      "inputs": [],
      "name": "manager",
      "outputs": [
        {
          "internalType": "address payable",
          "name": "",
          "type": "address"
        }
      ],
      "stateMutability": "view",
      "type": "function",
      "constant": true
    },
    {
      "inputs": [
        {
          "internalType": "uint256",
          "name": "_entryFee",
          "type": "uint256"
        }
      ],
      "name": "restartLottery",
      "outputs": [],
      "stateMutability": "nonpayable",
      "type": "function"
    },
    {
      "inputs": [],
      "name": "enterLottery",
      "outputs": [],
      "stateMutability": "payable",
      "type": "function",
      "payable": true
    },
    {
      "inputs": [],
      "name": "getNumberOfPlayers",
      "outputs": [
        {
          "internalType": "uint256",
          "name": "",
          "type": "uint256"
        }
      ],
      "stateMutability": "view",
      "type": "function",
      "constant": true
    },
    {
      "inputs": [],
      "name": "getPlayers",
      "outputs": [
        {
          "internalType": "address payable[]",
          "name": "",
          "type": "address[]"
        }
      ],
      "stateMutability": "view",
      "type": "function",
      "constant": true
    },
    {
      "inputs": [
        {
          "internalType": "uint256",
          "name": "_id",
          "type": "uint256"
        }
      ],
      "name": "getPlayer",
      "outputs": [
        {
          "internalType": "address payable",
          "name": "",
          "type": "address"
        }
      ],
      "stateMutability": "view",
      "type": "function",
      "constant": true
    },
    {
      "inputs": [],
      "name": "getPricePool",
      "outputs": [
        {
          "internalType": "uint256",
          "name": "",
          "type": "uint256"
        }
      ],
      "stateMutability": "view",
      "type": "function",
      "constant": true
    },
    {
      "inputs": [],
      "name": "getEntryFee",
      "outputs": [
        {
          "internalType": "uint256",
          "name": "",
          "type": "uint256"
        }
      ],
      "stateMutability": "view",
      "type": "function",
      "constant": true
    }
  ],
  "bytecode": "0x608060405234801561001057600080fd5b50600080546001600160a01b031916331781556003819055600455600160058190556002805460ff191690911790556103d78061004e6000396000f3fe60806040526004361061007b5760003560e01c8063c1af57851161004e578063c1af578514610120578063e55ae4e814610128578063e586a4f014610148578063fd6673f51461015d57600080fd5b80631fec1cf714610080578063481c6a75146100a45780638b5b9ccc146100dc578063bb9ab7d2146100fe575b600080fd5b34801561008c57600080fd5b506004545b6040519081526020015b60405180910390f35b3480156100b057600080fd5b506000546100c4906001600160a01b031681565b6040516001600160a01b03909116815260200161009b565b3480156100e857600080fd5b506100f1610172565b60405161009b919061030b565b34801561010a57600080fd5b5061011e6101193660046102f3565b6101d4565b005b61011e6101e3565b34801561013457600080fd5b506100c46101433660046102f3565b6102b5565b34801561015457600080fd5b50600554610091565b34801561016957600080fd5b50600354610091565b606060018054806020026020016040519081016040528092919081815260200182805480156101ca57602002820191906000526020600020905b81546001600160a01b031681526001909101906020018083116101ac575b5050505050905090565b6002805460ff19169055600080fd5b60025460ff166101f257600080fd5b60005433906001600160a01b031681141561020c57600080fd5b60055434101561021b57600080fd5b346004546102299190610358565b6004556003805490600061023c83610370565b909155505060018054808201825560009182527fb10e2d527612073b26eecdfd717e6a320cf44b4afac2b0732d9fcbe2b7fa0cf60180546001600160a01b03191633908117909155600354604051919290917ffa9dc8c83aa1f703aedc31eab7f85db92ab3ae998363edf4bc7a07e5d080f5359190a350565b6000600182815481106102d857634e487b7160e01b600052603260045260246000fd5b6000918252602090912001546001600160a01b031692915050565b600060208284031215610304578081fd5b5035919050565b6020808252825182820181905260009190848201906040850190845b8181101561034c5783516001600160a01b031683529284019291840191600101610327565b50909695505050505050565b6000821982111561036b5761036b61038b565b500190565b60006000198214156103845761038461038b565b5060010190565b634e487b7160e01b600052601160045260246000fdfea26469706673582212200678adc14ae04f270a57ded1ac8c4c8ef8bc8c54f425b40e3fd1176dd3a5401a64736f6c63430008040033",
  "immutableReferences": {},
  "source": "// SPDX-License-Identifier: GPL-3.0\npragma solidity ^0.8.4;\n\ncontract Lottery {\n\n  address payable public  manager;   // manager is the creator of this contract\n  address payable[] players;\n  bool lotteryIsOpen;\n  uint playerCounter;\n  uint pricePool;\n  uint entryFee; // the number of ETH to pay in order to play\n\n  event logPlayerEnters (\n    uint indexed _id,\n    address indexed _player\n  );\n\n  event logPickWinner (\n    uint indexed _id,\n    address indexed _player\n  );\n\n  event logLotteryOpen (\n    uint entryFee\n  );\n\n  constructor ()  {\n    manager = payable(msg.sender);\n    playerCounter = 0;\n    pricePool = 0;\n    entryFee = 1;\n    lotteryIsOpen = true;\n  }\n\n  function restartLottery(uint _entryFee) public {\n    require(lotteryIsOpen = false);\n\n    // only the manager can restart the lottery\n    require(payable(msg.sender) == manager);\n\n    // entryFee should be 0.5 at least\n    require(_entryFee >= 1);\n\n    playerCounter = 0;\n    pricePool = 0;\n    entryFee = _entryFee;\n    lotteryIsOpen = true;\n\n    emit logLotteryOpen(_entryFee);\n  }\n\n  function enterLottery () public payable {\n    // the lottery should be open\n    require(lotteryIsOpen);\n\n    // the manager can not enter himself\n    address payable _sender = payable(msg.sender);\n    require(_sender != manager);\n\n    // The value must be equal to the entryFee\n    require(msg.value >= entryFee);\n\n    // increase the pricepool, playercounter and add the player to the array\n    pricePool = pricePool + msg.value;\n    playerCounter++;\n    players.push(payable(msg.sender));\n\n    emit logPlayerEnters(playerCounter, msg.sender);\n  }\n\n  // function pickWinner () public {\n  //   // should be at leats 2 players\n  //   uint _id;\n  //   require(playerCounter > 1);\n  //\n  //   _id = 1;\n  //   emit logPickWinner(_id, players[_id]);\n  // }\n\n  function getNumberOfPlayers () public view returns (uint) {\n    return playerCounter;\n  }\n\n  function getPlayers () public view returns ( address payable[] memory) {\n    return players;\n  }\n\n  function getPlayer (uint _id) public view returns (address payable) {\n    return players[_id];\n  }\n\n  function getPricePool () public view returns (uint) {\n    return pricePool;\n  }\n\n  function getEntryFee () public view returns (uint) {\n    return entryFee;\n  }\n}\n",
  "sourcePath": "/mnt/data/Ethereum/Git/Hans-van-Velzen/UdemyLottery/contracts/2_Lottery.sol",
  "compiler": {
    "name": "solc",
    "version": "0.8.4+commit.c7e474f2.Emscripten.clang"
  },
  "schemaVersion": "3.4.0",
  "updatedAt": "2021-05-21T02:01:25.913Z",
  "networkType": "ethereum",
  "devdoc": {
    "kind": "dev",
    "methods": {},
    "version": 1
  },
  "userdoc": {
    "kind": "user",
    "methods": {},
    "version": 1
  }
}