{
  "contractName": "Lottery",
  "abi": [
    {
      "inputs": [],
      "stateMutability": "nonpayable",
      "type": "constructor"
    },
    {
      "anonymous": false,
      "inputs": [
        {
          "indexed": false,
          "internalType": "uint256",
          "name": "entryFee",
          "type": "uint256"
        }
      ],
      "name": "logLotteryOpen",
      "type": "event"
    },
    {
      "anonymous": false,
      "inputs": [
        {
          "indexed": true,
          "internalType": "uint256",
          "name": "_id",
          "type": "uint256"
        },
        {
          "indexed": true,
          "internalType": "address",
          "name": "_player",
          "type": "address"
        }
      ],
      "name": "logPickWinner",
      "type": "event"
    },
    {
      "anonymous": false,
      "inputs": [
        {
          "indexed": true,
          "internalType": "uint256",
          "name": "_id",
          "type": "uint256"
        },
        {
          "indexed": true,
          "internalType": "address",
          "name": "_player",
          "type": "address"
        }
      ],
      "name": "logPlayerEnters",
      "type": "event"
    },
    {
      "anonymous": false,
      "inputs": [
        {
          "indexed": false,
          "internalType": "string",
          "name": "message",
          "type": "string"
        }
      ],
      "name": "logTrace",
      "type": "event"
    },
    {
      "inputs": [],
      "name": "manager",
      "outputs": [
        {
          "internalType": "address payable",
          "name": "",
          "type": "address"
        }
      ],
      "stateMutability": "view",
      "type": "function",
      "constant": true
    },
    {
      "inputs": [
        {
          "internalType": "uint256",
          "name": "_entryFee",
          "type": "uint256"
        }
      ],
      "name": "restartLottery",
      "outputs": [],
      "stateMutability": "nonpayable",
      "type": "function"
    },
    {
      "inputs": [],
      "name": "enterLottery",
      "outputs": [],
      "stateMutability": "payable",
      "type": "function",
      "payable": true
    },
    {
      "inputs": [],
      "name": "pickWinner",
      "outputs": [],
      "stateMutability": "payable",
      "type": "function",
      "payable": true
    },
    {
      "inputs": [],
      "name": "getNumberOfPlayers",
      "outputs": [
        {
          "internalType": "uint256",
          "name": "",
          "type": "uint256"
        }
      ],
      "stateMutability": "view",
      "type": "function",
      "constant": true
    },
    {
      "inputs": [],
      "name": "getPlayers",
      "outputs": [
        {
          "internalType": "address payable[]",
          "name": "",
          "type": "address[]"
        }
      ],
      "stateMutability": "view",
      "type": "function",
      "constant": true
    },
    {
      "inputs": [
        {
          "internalType": "uint256",
          "name": "_id",
          "type": "uint256"
        }
      ],
      "name": "getPlayer",
      "outputs": [
        {
          "internalType": "address payable",
          "name": "",
          "type": "address"
        }
      ],
      "stateMutability": "view",
      "type": "function",
      "constant": true
    },
    {
      "inputs": [],
      "name": "getPricePool",
      "outputs": [
        {
          "internalType": "uint256",
          "name": "",
          "type": "uint256"
        }
      ],
      "stateMutability": "view",
      "type": "function",
      "constant": true
    },
    {
      "inputs": [],
      "name": "getEntryFee",
      "outputs": [
        {
          "internalType": "uint256",
          "name": "",
          "type": "uint256"
        }
      ],
      "stateMutability": "view",
      "type": "function",
      "constant": true
    }
  ],
  "bytecode": "0x608060405234801561001057600080fd5b50600080546001600160a01b031916331781556003819055600455600160058190556002805460ff1916909117905561064f8061004e6000396000f3fe6080604052600436106100865760003560e01c8063bb9ab7d211610059578063bb9ab7d214610113578063c1af578514610133578063e55ae4e81461013b578063e586a4f01461015b578063fd6673f51461017057600080fd5b80631fec1cf71461008b578063481c6a75146100af5780635d495aea146100e75780638b5b9ccc146100f1575b600080fd5b34801561009757600080fd5b506004545b6040519081526020015b60405180910390f35b3480156100bb57600080fd5b506000546100cf906001600160a01b031681565b6040516001600160a01b0390911681526020016100a6565b6100ef610185565b005b3480156100fd57600080fd5b50610106610296565b6040516100a69190610563565b34801561011f57600080fd5b506100ef61012e3660046104fe565b6102f8565b6100ef610386565b34801561014757600080fd5b506100cf6101563660046104fe565b610458565b34801561016757600080fd5b5060055461009c565b34801561017c57600080fd5b5060035461009c565b600060016003541161019657600080fd5b6002805460ff191690556001546101ab610496565b6101b591906105e3565b9050600181815481106101d857634e487b7160e01b600052603260045260246000fd5b60009182526020822001546040516001600160a01b039091169183917f9cbd4e389b5c2418919bf637be4df5062ea9925239ead375f4100ae98a374cc79190a36001818154811061023957634e487b7160e01b600052603260045260246000fd5b60009182526020822001546040516001600160a01b03909116914780156108fc02929091818181858888f1935050505015801561027a573d6000803e3d6000fd5b50600060048190556003819055610293906001906104cc565b50565b606060018054806020026020016040519081016040528092919081815260200182805480156102ee57602002820191906000526020600020905b81546001600160a01b031681526001909101906020018083116102d0575b5050505050905090565b60025460ff161561030857600080fd5b6000546001600160a01b0316331461031f57600080fd5b600181101561032d57600080fd5b6000600381905560045560058190556002805460ff191660011790556040517f6194e8f145406fd2b23bf437bdf3004340104574700d3d50f4a124b922ab0f3a9061037b9083815260200190565b60405180910390a150565b60025460ff1661039557600080fd5b60005433906001600160a01b03168114156103af57600080fd5b6005543410156103be57600080fd5b346004546103cc91906105b0565b600455600380549060006103df836105c8565b909155505060018054808201825560009182527fb10e2d527612073b26eecdfd717e6a320cf44b4afac2b0732d9fcbe2b7fa0cf60180546001600160a01b03191633908117909155600354604051919290917ffa9dc8c83aa1f703aedc31eab7f85db92ab3ae998363edf4bc7a07e5d080f5359190a350565b60006001828154811061047b57634e487b7160e01b600052603260045260246000fd5b6000918252602090912001546001600160a01b031692915050565b6000444260016040516020016104ae93929190610516565b6040516020818303038152906040528051906020012060001c905090565b508054600082559060005260206000209081019061029391905b808211156104fa57600081556001016104e6565b5090565b60006020828403121561050f578081fd5b5035919050565b838152600060208481840152604083018454858452828420845b828110156105555781546001600160a01b031684529284019260019182019101610530565b509198975050505050505050565b6020808252825182820181905260009190848201906040850190845b818110156105a45783516001600160a01b03168352928401929184019160010161057f565b50909695505050505050565b600082198211156105c3576105c3610603565b500190565b60006000198214156105dc576105dc610603565b5060010190565b6000826105fe57634e487b7160e01b81526012600452602481fd5b500690565b634e487b7160e01b600052601160045260246000fdfea2646970667358221220f29eb6e2808e1326e2e28c1217f3bb7d4587124085eaf620a5a85e7715f4316e64736f6c63430008040033",
  "immutableReferences": {},
  "source": "// SPDX-License-Identifier: GPL-3.0\npragma solidity ^0.8.4;\n\ncontract Lottery {\n\n  address payable public  manager;   // manager is the creator of this contract\n  address payable[] players;\n  bool lotteryIsOpen;\n  uint playerCounter;\n  uint pricePool;\n  uint entryFee; // the number of ETH to pay in order to play\n  uint minimumNumberOfPlayers;\n\n  event logPlayerEnters (\n    uint indexed _id,\n    address indexed _player\n  );\n\n  event logPickWinner (\n    uint indexed _id,\n    address indexed _player\n  );\n\n  event logLotteryOpen (\n    uint entryFee\n  );\n\n  event logTrace (\n    string message\n  );\n\n  constructor ()  {\n    manager = payable(msg.sender);\n    playerCounter = 0;\n    pricePool = 0;\n    entryFee = 1;\n    lotteryIsOpen = true;\n  }\n\n  function restartLottery(uint _entryFee) public {\n    require(lotteryIsOpen == false);\n\n    // add a minimum number of players\n    // only the manager can restart the lottery\n    require(payable(msg.sender) == manager);\n\n    // entryFee should be 0.5 at least\n    require(_entryFee >= 1);\n\n    playerCounter = 0;\n    pricePool = 0;\n    entryFee = _entryFee;\n    lotteryIsOpen = true;\n\n    emit logLotteryOpen(_entryFee);\n  }\n\n  function enterLottery () public payable {\n    // the lottery should be open\n    require(lotteryIsOpen);\n\n    // the manager can not enter himself\n    address payable _sender = payable(msg.sender);\n    require(_sender != manager);\n\n    // The value must be equal to the entryFee\n    require(msg.value >= entryFee);\n\n    // increase the pricepool, playercounter and add the player to the array\n    pricePool = pricePool + msg.value;\n    playerCounter++;\n    players.push(payable(msg.sender));\n\n    emit logPlayerEnters(playerCounter, msg.sender);\n  }\n\n  function random() private view returns(uint) {\n      // take the current block difficulty\n      // and the time\n      // and the addresses of the players\n      // hash them and convert to uint\n      return uint(keccak256(abi.encodePacked(block.difficulty, block.timestamp, players)));\n  }\n\n  function pickWinner () public payable {\n    // should be at leats 2 players\n    uint _id;\n    require(playerCounter > 1);\n\n    // close the lottery\n    lotteryIsOpen = false;\n\n    _id = random() % players.length;\n    emit logPickWinner(_id, players[_id]);\n\n    // send the payment\n    players[_id].transfer(address(this).balance);\n    pricePool = 0;\n    playerCounter = 0;\n    delete players;\n  }\n\n  function getNumberOfPlayers () public view returns (uint) {\n    return playerCounter;\n  }\n\n  function getPlayers () public view returns ( address payable[] memory) {\n    return players;\n  }\n\n  function getPlayer (uint _id) public view returns (address payable) {\n    return players[_id];\n  }\n\n  function getPricePool () public view returns (uint) {\n    return pricePool;\n  }\n\n  function getEntryFee () public view returns (uint) {\n    return entryFee;\n  }\n}\n",
  "sourcePath": "/mnt/data/Ethereum/Git/Hans-van-Velzen/UdemyLottery/contracts/2_Lottery.sol",
  "compiler": {
    "name": "solc",
    "version": "0.8.4+commit.c7e474f2.Emscripten.clang"
  },
  "schemaVersion": "3.4.0",
  "updatedAt": "2021-06-09T03:18:52.887Z",
  "networkType": "ethereum",
  "devdoc": {
    "kind": "dev",
    "methods": {},
    "version": 1
  },
  "userdoc": {
    "kind": "user",
    "methods": {},
    "version": 1
  }
}