{
  "contractName": "Lottery",
  "abi": [
    {
      "inputs": [],
      "stateMutability": "nonpayable",
      "type": "constructor"
    },
    {
      "anonymous": false,
      "inputs": [
        {
          "indexed": true,
          "internalType": "uint256",
          "name": "_id",
          "type": "uint256"
        },
        {
          "indexed": true,
          "internalType": "address",
          "name": "_player",
          "type": "address"
        }
      ],
      "name": "logPickWinner",
      "type": "event"
    },
    {
      "anonymous": false,
      "inputs": [
        {
          "indexed": true,
          "internalType": "uint256",
          "name": "_id",
          "type": "uint256"
        },
        {
          "indexed": true,
          "internalType": "address",
          "name": "_player",
          "type": "address"
        }
      ],
      "name": "logPlayerEnters",
      "type": "event"
    },
    {
      "inputs": [],
      "name": "manager",
      "outputs": [
        {
          "internalType": "address payable",
          "name": "",
          "type": "address"
        }
      ],
      "stateMutability": "view",
      "type": "function",
      "constant": true
    },
    {
      "inputs": [],
      "name": "enterLottery",
      "outputs": [],
      "stateMutability": "payable",
      "type": "function",
      "payable": true
    },
    {
      "inputs": [],
      "name": "getNumberOfPlayers",
      "outputs": [
        {
          "internalType": "uint256",
          "name": "",
          "type": "uint256"
        }
      ],
      "stateMutability": "view",
      "type": "function",
      "constant": true
    },
    {
      "inputs": [],
      "name": "getPlayers",
      "outputs": [
        {
          "internalType": "address payable[]",
          "name": "",
          "type": "address[]"
        }
      ],
      "stateMutability": "view",
      "type": "function",
      "constant": true
    },
    {
      "inputs": [
        {
          "internalType": "uint256",
          "name": "_id",
          "type": "uint256"
        }
      ],
      "name": "getPlayer",
      "outputs": [
        {
          "internalType": "address payable",
          "name": "",
          "type": "address"
        }
      ],
      "stateMutability": "view",
      "type": "function",
      "constant": true
    },
    {
      "inputs": [],
      "name": "getPricePool",
      "outputs": [
        {
          "internalType": "uint256",
          "name": "",
          "type": "uint256"
        }
      ],
      "stateMutability": "view",
      "type": "function",
      "constant": true
    },
    {
      "inputs": [],
      "name": "getEntryFee",
      "outputs": [
        {
          "internalType": "uint256",
          "name": "",
          "type": "uint256"
        }
      ],
      "stateMutability": "view",
      "type": "function",
      "constant": true
    }
  ],
  "bytecode": "0x608060405234801561001057600080fd5b50600080546001600160a01b031916331781556002819055600355600160045561038e8061003f6000396000f3fe6080604052600436106100705760003560e01c8063c1af57851161004e578063c1af5785146100f3578063e55ae4e8146100fd578063e586a4f01461011d578063fd6673f51461013257600080fd5b80631fec1cf714610075578063481c6a75146100995780638b5b9ccc146100d1575b600080fd5b34801561008157600080fd5b506003545b6040519081526020015b60405180910390f35b3480156100a557600080fd5b506000546100b9906001600160a01b031681565b6040516001600160a01b039091168152602001610090565b3480156100dd57600080fd5b506100e6610147565b60405161009091906102c2565b6100fb6101a9565b005b34801561010957600080fd5b506100b96101183660046102aa565b61026c565b34801561012957600080fd5b50600454610086565b34801561013e57600080fd5b50600254610086565b6060600180548060200260200160405190810160405280929190818152602001828054801561019f57602002820191906000526020600020905b81546001600160a01b03168152600190910190602001808311610181575b5050505050905090565b60005433906001600160a01b03168114156101c357600080fd5b6004543410156101d257600080fd5b346003546101e0919061030f565b600355600280549060006101f383610327565b909155505060018054808201825560009182527fb10e2d527612073b26eecdfd717e6a320cf44b4afac2b0732d9fcbe2b7fa0cf60180546001600160a01b03191633908117909155600254604051919290917ffa9dc8c83aa1f703aedc31eab7f85db92ab3ae998363edf4bc7a07e5d080f5359190a350565b60006001828154811061028f57634e487b7160e01b600052603260045260246000fd5b6000918252602090912001546001600160a01b031692915050565b6000602082840312156102bb578081fd5b5035919050565b6020808252825182820181905260009190848201906040850190845b818110156103035783516001600160a01b0316835292840192918401916001016102de565b50909695505050505050565b6000821982111561032257610322610342565b500190565b600060001982141561033b5761033b610342565b5060010190565b634e487b7160e01b600052601160045260246000fdfea264697066735822122064e71034ad1d6581374b20e5fa181da43f1e7b22455f244b095e525f9637454864736f6c63430008040033",
  "immutableReferences": {},
  "source": "// SPDX-License-Identifier: GPL-3.0\npragma solidity ^0.8.4;\n\ncontract Lottery {\n\n  address payable public  manager;   // manager is the creator of this contract\n  address payable[] players;\n  //boolean lotteryIsOpen;\n  uint playerCounter;\n  uint pricePool;\n  uint entryFee; // the number of ETH to pay in order to play\n\n  event logPlayerEnters (\n    uint indexed _id,\n    address indexed _player\n  );\n\n  event logPickWinner (\n    uint indexed _id,\n    address indexed _player\n  );\n\n  constructor ()  {\n    manager = payable(msg.sender);\n    playerCounter = 0;\n    pricePool = 0;\n    entryFee = 1;\n    //lotteryIsOpen = true;\n  }\n\n  function enterLottery () public payable {\n    // the lottery should be open\n    //require(lotteryIsOpen);\n\n    // the manager can not enter himself\n    address payable _sender = payable(msg.sender);\n    require(_sender != manager);\n\n    // The value must be equal to the entryFee\n    require(msg.value >= entryFee);\n\n    // increase the pricepool\n     pricePool = pricePool + msg.value;\n     playerCounter++;\n     players.push(payable(msg.sender));\n\n    emit logPlayerEnters(playerCounter, msg.sender);\n  }\n\n  // function pickWinner () public {\n  //   // should be at leats 2 players\n  //   uint _id;\n  //   require(playerCounter > 1);\n  //\n  //   _id = 1;\n  //   emit logPickWinner(_id, players[_id]);\n  // }\n\n  function getNumberOfPlayers () public view returns (uint) {\n    return playerCounter;\n  }\n\n  function getPlayers () public view returns ( address payable[] memory) {\n    return players;\n  }\n\n  function getPlayer (uint _id) public view returns (address payable) {\n    return players[_id];\n  }\n\n  function getPricePool () public view returns (uint) {\n    return pricePool;\n  }\n\n  function getEntryFee () public view returns (uint) {\n    return entryFee;\n  }\n}\n",
  "sourcePath": "/mnt/data/Ethereum/Git/Hans-van-Velzen/UdemyLottery/contracts/2_Lottery.sol",
  "compiler": {
    "name": "solc",
    "version": "0.8.4+commit.c7e474f2.Emscripten.clang"
  },
  "schemaVersion": "3.4.0",
  "updatedAt": "2021-05-17T03:52:50.188Z",
  "networkType": "ethereum",
  "devdoc": {
    "kind": "dev",
    "methods": {},
    "version": 1
  },
  "userdoc": {
    "kind": "user",
    "methods": {},
    "version": 1
  }
}